{
  "address": "0x5FbDB2315678afecb367f032d93F642f64180aa3",
  "abi": [
    {
      "inputs": [],
      "name": "BASE_ERC20_TRANSFER_GAS",
      "outputs": [
        {
          "internalType": "uint256",
          "name": "",
          "type": "uint256"
        }
      ],
      "stateMutability": "view",
      "type": "function"
    },
    {
      "inputs": [],
      "name": "BASE_ERC721_TRANSFER_GAS",
      "outputs": [
        {
          "internalType": "uint256",
          "name": "",
          "type": "uint256"
        }
      ],
      "stateMutability": "view",
      "type": "function"
    },
    {
      "inputs": [],
      "name": "MAX_GAS_MULTIPLIER",
      "outputs": [
        {
          "internalType": "uint256",
          "name": "",
          "type": "uint256"
        }
      ],
      "stateMutability": "view",
      "type": "function"
    },
    {
      "inputs": [
        {
          "internalType": "address",
          "name": "token",
          "type": "address"
        },
        {
          "internalType": "address[]",
          "name": "tos",
          "type": "address[]"
        },
        {
          "internalType": "uint256[]",
          "name": "amounts",
          "type": "uint256[]"
        },
        {
          "internalType": "uint256",
          "name": "baseGas_",
          "type": "uint256"
        }
      ],
      "name": "multisendERC20",
      "outputs": [],
      "stateMutability": "nonpayable",
      "type": "function"
    },
    {
      "inputs": [
        {
          "internalType": "address",
          "name": "token",
          "type": "address"
        },
        {
          "internalType": "address[]",
          "name": "tos",
          "type": "address[]"
        },
        {
          "internalType": "uint256[]",
          "name": "tokenIds",
          "type": "uint256[]"
        },
        {
          "internalType": "bytes[]",
          "name": "data",
          "type": "bytes[]"
        },
        {
          "internalType": "uint256",
          "name": "baseGas_",
          "type": "uint256"
        }
      ],
      "name": "multisendERC721",
      "outputs": [],
      "stateMutability": "nonpayable",
      "type": "function"
    }
  ],
  "transactionHash": "0x8e31f575f414f393e7181e51697f81c4b0770ed4a3e223ca3300d703981169ed",
  "args": [],
  "numDeployments": 1,
  "solcInputHash": "15b64be301faa0ba6c6f3e4d8cd597a2",
  "bytecode": "0x608060405234801561001057600080fd5b506110d6806100206000396000f3fe608060405234801561001057600080fd5b50600436106100675760003560e01c8063cc75ee3511610050578063cc75ee351461009c578063d9bd4c68146100a4578063f68634c2146100b757600080fd5b80639c0899eb1461006c578063b1e242e814610087575b600080fd5b610075616ee081565b60405190815260200160405180910390f35b61009a610095366004610b81565b6100c0565b005b610075600381565b61009a6100b2366004610c0a565b6102a9565b6100756192c581565b6001600160a01b03861661011b5760405162461bcd60e51b815260206004820152601960248201527f746f6b656e20616464726573732063616e6e6f7420626520300000000000000060448201526064015b60405180910390fd5b8382146101905760405162461bcd60e51b815260206004820152602960248201527f746f7320616e6420616d6f756e7473206d75737420686176652074686520736160448201527f6d65206c656e67746800000000000000000000000000000000000000000000006064820152608401610112565b6000816000036101a257616ee06101a4565b815b604080516020810190915260008082529192509086905b87811015610294576101d881836101d3600388610cd2565b610500565b6102228a8a8a848181106101ee576101ee610ce9565b90506020020160208101906102039190610cff565b89898581811061021557610215610ce9565b9050602002013587610574565b610282578261025f8a8a8481811061023c5761023c610ce9565b90506020020160208101906102519190610cff565b6001600160a01b0316610681565b604051602001610270929190610d3e565b60405160208183030381529060405292505b8061028c81610d95565b9150506101bb565b5061029e8261069d565b505050505050505050565b6001600160a01b0388166102ff5760405162461bcd60e51b815260206004820152601960248201527f746f6b656e20616464726573732063616e6e6f742062652030000000000000006044820152606401610112565b8584146103745760405162461bcd60e51b815260206004820152602a60248201527f746f7320616e6420746f6b656e496473206d757374206861766520746865207360448201527f616d65206c656e677468000000000000000000000000000000000000000000006064820152608401610112565b8582146103e95760405162461bcd60e51b815260206004820152602660248201527f746f7320616e642064617461206d7573742068617665207468652073616d652060448201527f6c656e67746800000000000000000000000000000000000000000000000000006064820152608401610112565b6000816000036103fb576192c56103fd565b815b604080516020810190915260008082529192509088905b898110156104e95761042c81836101d3600388610cd2565b61049a8c8c8c8481811061044257610442610ce9565b90506020020160208101906104579190610cff565b8b8b8581811061046957610469610ce9565b905060200201358a8a8681811061048257610482610ce9565b90506020028101906104949190610dae565b896106c9565b6104d757826104b48c8c8481811061023c5761023c610ce9565b6040516020016104c5929190610d3e565b60405160208183030381529060405292505b806104e181610d95565b915050610414565b506104f38261069d565b5050505050505050505050565b805a101561056f5761051b610516846001610df5565b6107af565b610524836107af565b61052d5a6107af565b610536846107af565b6040516020016105499493929190610e08565b60408051601f198184030181529082905262461bcd60e51b825261011291600401610f0b565b505050565b600080806001600160a01b03871661058d600386610cd2565b6040513360248201526001600160a01b03891660448201526064810188905260840160408051601f198184030181529181526020820180517bffffffffffffffffffffffffffffffffffffffffffffffffffffffff167f23b872dd00000000000000000000000000000000000000000000000000000000179052516106129190610f3e565b60006040518083038160008787f1925050503d8060008114610650576040519150601f19603f3d011682016040523d82523d6000602084013e610655565b606091505b50915091508180156106765750808060200190518101906106769190610f5a565b979650505050505050565b60606106976001600160a01b038316601461084f565b92915050565b805180156106c5576106b3610516602b83610f7c565b82604051602001610549929190610f9e565b5050565b6000806001600160a01b0388166106e1600385610cd2565b33898989896040516024016106fa95949392919061101f565b60408051601f198184030181529181526020820180517bffffffffffffffffffffffffffffffffffffffffffffffffffffffff167fb88d4fde000000000000000000000000000000000000000000000000000000001790525161075d9190610f3e565b60006040518083038160008787f1925050503d806000811461079b576040519150601f19603f3d011682016040523d82523d6000602084013e6107a0565b606091505b50909998505050505050505050565b606060006107bc83610a37565b600101905060008167ffffffffffffffff8111156107dc576107dc611073565b6040519080825280601f01601f191660200182016040528015610806576020820181803683370190505b5090508181016020015b600019017f3031323334353637383961626364656600000000000000000000000000000000600a86061a8153600a850494508461081057509392505050565b6060600061085e836002610cd2565b610869906002610df5565b67ffffffffffffffff81111561088157610881611073565b6040519080825280601f01601f1916602001820160405280156108ab576020820181803683370190505b5090507f3000000000000000000000000000000000000000000000000000000000000000816000815181106108e2576108e2610ce9565b60200101906001600160f81b031916908160001a9053507f78000000000000000000000000000000000000000000000000000000000000008160018151811061092d5761092d610ce9565b60200101906001600160f81b031916908160001a9053506000610951846002610cd2565b61095c906001610df5565b90505b60018111156109e1577f303132333435363738396162636465660000000000000000000000000000000085600f166010811061099d5761099d610ce9565b1a60f81b8282815181106109b3576109b3610ce9565b60200101906001600160f81b031916908160001a90535060049490941c936109da81611089565b905061095f565b508315610a305760405162461bcd60e51b815260206004820181905260248201527f537472696e67733a20686578206c656e67746820696e73756666696369656e746044820152606401610112565b9392505050565b6000807a184f03e93ff9f4daa797ed6e38ed64bf6a1f0100000000000000008310610a80577a184f03e93ff9f4daa797ed6e38ed64bf6a1f010000000000000000830492506040015b6d04ee2d6d415b85acef81000000008310610aac576d04ee2d6d415b85acef8100000000830492506020015b662386f26fc100008310610aca57662386f26fc10000830492506010015b6305f5e1008310610ae2576305f5e100830492506008015b6127108310610af657612710830492506004015b60648310610b08576064830492506002015b600a83106106975760010192915050565b80356001600160a01b0381168114610b3057600080fd5b919050565b60008083601f840112610b4757600080fd5b50813567ffffffffffffffff811115610b5f57600080fd5b6020830191508360208260051b8501011115610b7a57600080fd5b9250929050565b60008060008060008060808789031215610b9a57600080fd5b610ba387610b19565b9550602087013567ffffffffffffffff80821115610bc057600080fd5b610bcc8a838b01610b35565b90975095506040890135915080821115610be557600080fd5b50610bf289828a01610b35565b979a9699509497949695606090950135949350505050565b60008060008060008060008060a0898b031215610c2657600080fd5b610c2f89610b19565b9750602089013567ffffffffffffffff80821115610c4c57600080fd5b610c588c838d01610b35565b909950975060408b0135915080821115610c7157600080fd5b610c7d8c838d01610b35565b909750955060608b0135915080821115610c9657600080fd5b50610ca38b828c01610b35565b999c989b50969995989497949560800135949350505050565b634e487b7160e01b600052601160045260246000fd5b808202811582820484141761069757610697610cbc565b634e487b7160e01b600052603260045260246000fd5b600060208284031215610d1157600080fd5b610a3082610b19565b60005b83811015610d35578181015183820152602001610d1d565b50506000910152565b60008351610d50818460208801610d1a565b835190830190610d64818360208801610d1a565b7f2c000000000000000000000000000000000000000000000000000000000000009101908152600101949350505050565b600060018201610da757610da7610cbc565b5060010190565b6000808335601e19843603018112610dc557600080fd5b83018035915067ffffffffffffffff821115610de057600080fd5b602001915036819003821315610b7a57600080fd5b8082018082111561069757610697610cbc565b7f77696c6c2072756e206f7574206f662067617320617420696e64657820000000815260008551610e4081601d850160208a01610d1a565b7f20696e2000000000000000000000000000000000000000000000000000000000601d918401918201528551610e7d816021840160208a01610d1a565b7f2c206c6566743a20000000000000000000000000000000000000000000000000602192909101918201528451610ebb816029840160208901610d1a565b601d818301019150507f2072657175697265643a20000000000000000000000000000000000000000000600c8201528351610efd816017840160208801610d1a565b016017019695505050505050565b6020815260008251806020840152610f2a816040850160208701610d1a565b601f01601f19169190910160400192915050565b60008251610f50818460208701610d1a565b9190910192915050565b600060208284031215610f6c57600080fd5b81518015158114610a3057600080fd5b600082610f9957634e487b7160e01b600052601260045260246000fd5b500490565b7f6661696c656420746f207472616e7366657220746f2000000000000000000000815260008351610fd6816016850160208801610d1a565b7f206164647265737365733a2000000000000000000000000000000000000000006016918401918201528351611013816022840160208801610d1a565b01602201949350505050565b60006001600160a01b03808816835280871660208401525084604083015260806060830152826080830152828460a0840137600060a0848401015260a0601f19601f85011683010190509695505050505050565b634e487b7160e01b600052604160045260246000fd5b60008161109857611098610cbc565b50600019019056fea2646970667358221220cca06b220c51549cb115de1b1957e1886d580f38d083e4caab94bb25f10cc4c764736f6c63430008130033",
  "devdoc": {
    "details": "Send ERC20/ERC721 to multiple account at once Features:  No transaction fees  Protection against gas griefing  User-friendly error messages: Lists each address if transfer fails  Audited using the reputable tool(=`slither`)",
    "kind": "dev",
    "methods": {
      "multisendERC20(address,address[],uint256[],uint256)": {
        "details": "Transfer erc20 to multiple receipients Revert if the transferring operation consume `MAX_GAS_MULTIPLIER` times larger gas then standard",
        "params": {
          "amounts": "list of amounts",
          "baseGas_": "the basic gas consumption of transferring operation",
          "token": "address of token",
          "tos": "list of receipient addresses"
        }
      },
      "multisendERC721(address,address[],uint256[],bytes[],uint256)": {
        "details": "Transfer erc721 to multiple receipients Revert if the transferring operation consume `MAX_GAS_MULTIPLIER` times larger gas then standard",
        "params": {
          "baseGas_": "the basic gas consumption of transferring operation",
          "data": "list of data",
          "token": "address of token",
          "tokenIds": "list of tokenIds",
          "tos": "list of receipient addresses"
        }
      }
    },
    "version": 1
  },
  "userdoc": {
    "kind": "user",
    "methods": {},
    "version": 1
  },
  "storageLayout": {
    "storage": [],
    "types": null
  }
}